{
  "contractName": "EmployeeContract",
  "abi": [
    {
      "inputs": [
        {
          "internalType": "address[]",
          "name": "_addresses",
          "type": "address[]"
        },
        {
          "internalType": "string[]",
          "name": "_names",
          "type": "string[]"
        },
        {
          "internalType": "uint256[]",
          "name": "_salaries",
          "type": "uint256[]"
        }
      ],
      "payable": false,
      "stateMutability": "nonpayable",
      "type": "constructor"
    },
    {
      "anonymous": false,
      "inputs": [
        {
          "indexed": false,
          "internalType": "address",
          "name": "_employee",
          "type": "address"
        },
        {
          "indexed": false,
          "internalType": "uint256",
          "name": "_newSalary",
          "type": "uint256"
        },
        {
          "indexed": false,
          "internalType": "uint256",
          "name": "_now",
          "type": "uint256"
        }
      ],
      "name": "ChangeOfSalaryEvent",
      "type": "event"
    },
    {
      "anonymous": false,
      "inputs": [
        {
          "indexed": false,
          "internalType": "bool",
          "name": "_complete",
          "type": "bool"
        },
        {
          "indexed": false,
          "internalType": "uint256",
          "name": "totalAmount",
          "type": "uint256"
        },
        {
          "indexed": false,
          "internalType": "uint256",
          "name": "_timestamp",
          "type": "uint256"
        }
      ],
      "name": "DeliverPayroll",
      "type": "event"
    },
    {
      "anonymous": false,
      "inputs": [
        {
          "indexed": false,
          "internalType": "address",
          "name": "_senderAddress",
          "type": "address"
        },
        {
          "indexed": false,
          "internalType": "uint256",
          "name": "_balance",
          "type": "uint256"
        },
        {
          "indexed": false,
          "internalType": "uint256",
          "name": "_timestamp",
          "type": "uint256"
        }
      ],
      "name": "Depositbalance",
      "type": "event"
    },
    {
      "anonymous": false,
      "inputs": [
        {
          "indexed": false,
          "internalType": "address",
          "name": "_receiverAddress",
          "type": "address"
        },
        {
          "indexed": false,
          "internalType": "uint256",
          "name": "_balance",
          "type": "uint256"
        },
        {
          "indexed": false,
          "internalType": "uint256",
          "name": "_timestamp",
          "type": "uint256"
        }
      ],
      "name": "SentbalanceFail",
      "type": "event"
    },
    {
      "anonymous": false,
      "inputs": [
        {
          "indexed": false,
          "internalType": "address",
          "name": "_receiverAddress",
          "type": "address"
        },
        {
          "indexed": false,
          "internalType": "uint256",
          "name": "_balance",
          "type": "uint256"
        },
        {
          "indexed": false,
          "internalType": "uint256",
          "name": "_timestamp",
          "type": "uint256"
        }
      ],
      "name": "Withdrawbalance",
      "type": "event"
    },
    {
      "constant": false,
      "inputs": [
        {
          "internalType": "address",
          "name": "_employee",
          "type": "address"
        },
        {
          "internalType": "uint256",
          "name": "_newSalary",
          "type": "uint256"
        }
      ],
      "name": "modifySalary",
      "outputs": [],
      "payable": false,
      "stateMutability": "nonpayable",
      "type": "function"
    },
    {
      "constant": true,
      "inputs": [],
      "name": "getEmployees",
      "outputs": [
        {
          "internalType": "address[]",
          "name": "",
          "type": "address[]"
        }
      ],
      "payable": false,
      "stateMutability": "view",
      "type": "function"
    },
    {
      "constant": false,
      "inputs": [
        {
          "internalType": "address",
          "name": "_employee",
          "type": "address"
        },
        {
          "internalType": "uint256",
          "name": "_newPosition",
          "type": "uint256"
        }
      ],
      "name": "changeEmployeePosition",
      "outputs": [],
      "payable": false,
      "stateMutability": "nonpayable",
      "type": "function"
    },
    {
      "constant": false,
      "inputs": [
        {
          "internalType": "address",
          "name": "_employee",
          "type": "address"
        }
      ],
      "name": "approveEmployeePosition",
      "outputs": [],
      "payable": false,
      "stateMutability": "nonpayable",
      "type": "function"
    },
    {
      "constant": false,
      "inputs": [
        {
          "internalType": "address",
          "name": "_employee",
          "type": "address"
        },
        {
          "internalType": "string",
          "name": "_name",
          "type": "string"
        },
        {
          "internalType": "uint256",
          "name": "_salary",
          "type": "uint256"
        },
        {
          "internalType": "uint256",
          "name": "_position",
          "type": "uint256"
        }
      ],
      "name": "addNewEmployee",
      "outputs": [],
      "payable": false,
      "stateMutability": "nonpayable",
      "type": "function"
    },
    {
      "constant": true,
      "inputs": [],
      "name": "getEmployeesInfo",
      "outputs": [
        {
          "components": [
            {
              "internalType": "string",
              "name": "name",
              "type": "string"
            },
            {
              "internalType": "uint256",
              "name": "salary",
              "type": "uint256"
            },
            {
              "internalType": "bool[]",
              "name": "approvals",
              "type": "bool[]"
            },
            {
              "internalType": "enum EmployeeContract.Position",
              "name": "position",
              "type": "uint8"
            }
          ],
          "internalType": "struct EmployeeContract.Employee[]",
          "name": "",
          "type": "tuple[]"
        }
      ],
      "payable": false,
      "stateMutability": "view",
      "type": "function"
    },
    {
      "constant": false,
      "inputs": [],
      "name": "deposit",
      "outputs": [],
      "payable": true,
      "stateMutability": "payable",
      "type": "function"
    },
    {
      "constant": true,
      "inputs": [],
      "name": "getGrandTotal",
      "outputs": [
        {
          "internalType": "uint256",
          "name": "",
          "type": "uint256"
        }
      ],
      "payable": false,
      "stateMutability": "view",
      "type": "function"
    },
    {
      "constant": false,
      "inputs": [
        {
          "internalType": "address payable",
          "name": "_to",
          "type": "address"
        },
        {
          "internalType": "uint256",
          "name": "_salary",
          "type": "uint256"
        }
      ],
      "name": "sendSalary",
      "outputs": [],
      "payable": true,
      "stateMutability": "payable",
      "type": "function"
    },
    {
      "constant": false,
      "inputs": [],
      "name": "sendPayroll",
      "outputs": [],
      "payable": true,
      "stateMutability": "payable",
      "type": "function"
    }
  ],
  "bytecode": "0x6080604052604051806080016040528060011515151581526020016001151515158152602001600115151515815260200160011515151581525060039060046200004b92919062000859565b50604051806080016040528060001515151581526020016000151515158152602001600015151515815260200160001515151581525060049060046200009392919062000859565b50348015620000a157600080fd5b506040516200370d3803806200370d8339818101604052620000c7919081019062000cb6565b60405180608001604052808360006008811115620000e157fe5b81518110620000ec57fe5b6020026020010151815260200182600060088111156200010857fe5b815181106200011357fe5b6020026020010151815260200160038054806020026020016040519081016040528092919081815260200182805480156200019357602002820191906000526020600020906000905b82829054906101000a900460ff161515815260200190600101906020826000010492830192600103820291508084116200015c5790505b5050505050815260200160006008811115620001ab57fe5b815250600260008560006008811115620001c157fe5b81518110620001cc57fe5b602002602001015173ffffffffffffffffffffffffffffffffffffffff1673ffffffffffffffffffffffffffffffffffffffff16815260200190815260200160002060008201518160000190805190602001906200022c92919062000906565b50602082015181600101556040820151816002019080519060200190620002559291906200098d565b5060608201518160030160006101000a81548160ff021916908360088111156200027b57fe5b0217905550905050604051806080016040528083600160088111156200029d57fe5b81518110620002a857fe5b602002602001015181526020018260016008811115620002c457fe5b81518110620002cf57fe5b6020026020010151815260200160038054806020026020016040519081016040528092919081815260200182805480156200034f57602002820191906000526020600020906000905b82829054906101000a900460ff16151581526020019060010190602082600001049283019260010382029150808411620003185790505b50505050508152602001600160088111156200036757fe5b8152506002600085600160088111156200037d57fe5b815181106200038857fe5b602002602001015173ffffffffffffffffffffffffffffffffffffffff1673ffffffffffffffffffffffffffffffffffffffff1681526020019081526020016000206000820151816000019080519060200190620003e892919062000906565b50602082015181600101556040820151816002019080519060200190620004119291906200098d565b5060608201518160030160006101000a81548160ff021916908360088111156200043757fe5b0217905550905050604051806080016040528083600260088111156200045957fe5b815181106200046457fe5b6020026020010151815260200182600260088111156200048057fe5b815181106200048b57fe5b6020026020010151815260200160038054806020026020016040519081016040528092919081815260200182805480156200050b57602002820191906000526020600020906000905b82829054906101000a900460ff16151581526020019060010190602082600001049283019260010382029150808411620004d45790505b50505050508152602001600260088111156200052357fe5b8152506002600085600260088111156200053957fe5b815181106200054457fe5b602002602001015173ffffffffffffffffffffffffffffffffffffffff1673ffffffffffffffffffffffffffffffffffffffff1681526020019081526020016000206000820151816000019080519060200190620005a492919062000906565b50602082015181600101556040820151816002019080519060200190620005cd9291906200098d565b5060608201518160030160006101000a81548160ff02191690836008811115620005f357fe5b0217905550905050604051806080016040528083600360088111156200061557fe5b815181106200062057fe5b6020026020010151815260200182600360088111156200063c57fe5b815181106200064757fe5b602002602001015181526020016003805480602002602001604051908101604052809291908181526020018280548015620006c757602002820191906000526020600020906000905b82829054906101000a900460ff16151581526020019060010190602082600001049283019260010382029150808411620006905790505b5050505050815260200160036008811115620006df57fe5b815250600260008560036008811115620006f557fe5b815181106200070057fe5b602002602001015173ffffffffffffffffffffffffffffffffffffffff1673ffffffffffffffffffffffffffffffffffffffff16815260200190815260200160002060008201518160000190805190602001906200076092919062000906565b50602082015181600101556040820151816002019080519060200190620007899291906200098d565b5060608201518160030160006101000a81548160ff02191690836008811115620007af57fe5b021790555090505060008090505b83518110156200084f576005848281518110620007d657fe5b602002602001015190806001815401808255809150509060018203906000526020600020016000909192909190916101000a81548173ffffffffffffffffffffffffffffffffffffffff021916908373ffffffffffffffffffffffffffffffffffffffff160217905550508080600101915050620007bd565b5050505062000ed5565b82805482825590600052602060002090601f01602090048101928215620008f35791602002820160005b83821115620008c257835183826101000a81548160ff021916908315150217905550926020019260010160208160000104928301926001030262000883565b8015620008f15782816101000a81549060ff0219169055600101602081600001049283019260010302620008c2565b505b50905062000902919062000a3a565b5090565b828054600181600116156101000203166002900490600052602060002090601f016020900481019282601f106200094957805160ff19168380011785556200097a565b828001600101855582156200097a579182015b82811115620009795782518255916020019190600101906200095c565b5b50905062000989919062000a6d565b5090565b82805482825590600052602060002090601f0160209004810192821562000a275791602002820160005b83821115620009f657835183826101000a81548160ff0219169083151502179055509260200192600101602081600001049283019260010302620009b7565b801562000a255782816101000a81549060ff0219169055600101602081600001049283019260010302620009f6565b505b50905062000a36919062000a3a565b5090565b62000a6a91905b8082111562000a6657600081816101000a81549060ff02191690555060010162000a41565b5090565b90565b62000a9291905b8082111562000a8e57600081600090555060010162000a74565b5090565b90565b60008151905062000aa68162000ea1565b92915050565b600082601f83011262000abe57600080fd5b815162000ad562000acf8262000d85565b62000d57565b9150818183526020840193506020810190508385602084028201111562000afb57600080fd5b60005b8381101562000b2f578162000b14888262000a95565b84526020840193506020830192505060018101905062000afe565b5050505092915050565b600082601f83011262000b4b57600080fd5b815162000b6262000b5c8262000dae565b62000d57565b9150818183526020840193506020810190508360005b8381101562000bac578151860162000b91888262000c43565b84526020840193506020830192505060018101905062000b78565b5050505092915050565b600082601f83011262000bc857600080fd5b815162000bdf62000bd98262000dd7565b62000d57565b9150818183526020840193506020810190508385602084028201111562000c0557600080fd5b60005b8381101562000c39578162000c1e888262000c9f565b84526020840193506020830192505060018101905062000c08565b5050505092915050565b600082601f83011262000c5557600080fd5b815162000c6c62000c668262000e00565b62000d57565b9150808252602083016020830185838301111562000c8957600080fd5b62000c9683828462000e6b565b50505092915050565b60008151905062000cb08162000ebb565b92915050565b60008060006060848603121562000ccc57600080fd5b600084015167ffffffffffffffff81111562000ce757600080fd5b62000cf58682870162000aac565b935050602084015167ffffffffffffffff81111562000d1357600080fd5b62000d218682870162000b39565b925050604084015167ffffffffffffffff81111562000d3f57600080fd5b62000d4d8682870162000bb6565b9150509250925092565b6000604051905081810181811067ffffffffffffffff8211171562000d7b57600080fd5b8060405250919050565b600067ffffffffffffffff82111562000d9d57600080fd5b602082029050602081019050919050565b600067ffffffffffffffff82111562000dc657600080fd5b602082029050602081019050919050565b600067ffffffffffffffff82111562000def57600080fd5b602082029050602081019050919050565b600067ffffffffffffffff82111562000e1857600080fd5b601f19601f8301169050602081019050919050565b600062000e3a8262000e41565b9050919050565b600073ffffffffffffffffffffffffffffffffffffffff82169050919050565b6000819050919050565b60005b8381101562000e8b57808201518184015260208101905062000e6e565b8381111562000e9b576000848401525b50505050565b62000eac8162000e2d565b811462000eb857600080fd5b50565b62000ec68162000e61565b811462000ed257600080fd5b50565b6128288062000ee56000396000f3fe6080604052600436106100915760003560e01c8063bbdabd0711610059578063bbdabd0714610148578063d0e30db014610164578063dac4c61b1461016e578063ee67485214610199578063f1cdc67a146101c257610091565b8063051e873f146100965780632bb481f0146100c15780634abefa36146100cb57806378ceca2b146100f65780639962759d1461011f575b600080fd5b3480156100a257600080fd5b506100ab6101eb565b6040516100b89190612426565b60405180910390f35b6100c96105c8565b005b3480156100d757600080fd5b506100e06109c8565b6040516100ed9190612404565b60405180910390f35b34801561010257600080fd5b5061011d60048036036101189190810190611f24565b610bd7565b005b34801561012b57600080fd5b5061014660048036036101419190810190611f24565b610f76565b005b610162600480360361015d9190810190611e6d565b61117d565b005b61016c6111fc565b005b34801561017a57600080fd5b50610183611248565b604051610190919061253f565b60405180910390f35b3480156101a557600080fd5b506101c060048036036101bb9190810190611e44565b611476565b005b3480156101ce57600080fd5b506101e960048036036101e49190810190611ea9565b611722565b005b606033600080905060008090505b600580549050811015610283578273ffffffffffffffffffffffffffffffffffffffff166005828154811061022a57fe5b9060005260206000200160009054906101000a900473ffffffffffffffffffffffffffffffffffffffff1673ffffffffffffffffffffffffffffffffffffffff16141561027657600191505b80806001019150506101f9565b50806102c4576040517f08c379a00000000000000000000000000000000000000000000000000000000081526004016102bb9061247f565b60405180910390fd5b600160088111156102d157fe5b600260003373ffffffffffffffffffffffffffffffffffffffff1673ffffffffffffffffffffffffffffffffffffffff16815260200190815260200160002060030160009054906101000a900460ff16600881111561032c57fe5b1461036c576040517f08c379a00000000000000000000000000000000000000000000000000000000081526004016103639061249f565b60405180910390fd5b60606005805490506040519080825280602002602001820160405280156103ad57816020015b61039a611ba3565b8152602001906001900390816103925790505b50905060008090505b6005805490508110156105be5760026000600583815481106103d457fe5b9060005260206000200160009054906101000a900473ffffffffffffffffffffffffffffffffffffffff1673ffffffffffffffffffffffffffffffffffffffff1673ffffffffffffffffffffffffffffffffffffffff168152602001908152602001600020604051806080016040529081600082018054600181600116156101000203166002900480601f0160208091040260200160405190810160405280929190818152602001828054600181600116156101000203166002900480156104dd5780601f106104b2576101008083540402835291602001916104dd565b820191906000526020600020905b8154815290600101906020018083116104c057829003601f168201915b50505050508152602001600182015481526020016002820180548060200260200160405190810160405280929190818152602001828054801561056457602002820191906000526020600020906000905b82829054906101000a900460ff1615158152602001906001019060208260000104928301926001038202915080841161052e5790505b505050505081526020016003820160009054906101000a900460ff16600881111561058b57fe5b600881111561059657fe5b815250508282815181106105a657fe5b602002602001018190525080806001019150506103b6565b5080935050505090565b33600080905060008090505b60058054905081101561065e578273ffffffffffffffffffffffffffffffffffffffff166005828154811061060557fe5b9060005260206000200160009054906101000a900473ffffffffffffffffffffffffffffffffffffffff1673ffffffffffffffffffffffffffffffffffffffff16141561065157600191505b80806001019150506105d4565b508061069f576040517f08c379a00000000000000000000000000000000000000000000000000000000081526004016106969061247f565b60405180910390fd5b600260088111156106ac57fe5b600260003373ffffffffffffffffffffffffffffffffffffffff1673ffffffffffffffffffffffffffffffffffffffff16815260200190815260200160002060030160009054906101000a900460ff16600881111561070757fe5b14610747576040517f08c379a000000000000000000000000000000000000000000000000000000000815260040161073e906124bf565b60405180910390fd5b600054610752611248565b1115610793576040517f08c379a000000000000000000000000000000000000000000000000000000000815260040161078a906124df565b60405180910390fd5b600160009054906101000a900460ff16156107e3576040517f08c379a00000000000000000000000000000000000000000000000000000000081526004016107da9061251f565b60405180910390fd5b60018060006101000a81548160ff02191690831515021790555060008090505b6005805490508110156109655760006005828154811061081f57fe5b9060005260206000200160009054906101000a900473ffffffffffffffffffffffffffffffffffffffff1690506108cf81600260006005868154811061086157fe5b9060005260206000200160009054906101000a900473ffffffffffffffffffffffffffffffffffffffff1673ffffffffffffffffffffffffffffffffffffffff1673ffffffffffffffffffffffffffffffffffffffff1681526020019081526020016000206001015461117d565b60026000600584815481106108e057fe5b9060005260206000200160009054906101000a900473ffffffffffffffffffffffffffffffffffffffff1673ffffffffffffffffffffffffffffffffffffffff1673ffffffffffffffffffffffffffffffffffffffff168152602001908152602001600020600101546000808282540392505081905550508080600101915050610803565b507fc0932a33175b09ce2cad67c2fb1aa29f0b987cd3fc54d395527dace8436c9d466001610991611248565b426040516109a193929190612448565b60405180910390a16000600160006101000a81548160ff0219169083151502179055505050565b606033600080905060008090505b600580549050811015610a60578273ffffffffffffffffffffffffffffffffffffffff1660058281548110610a0757fe5b9060005260206000200160009054906101000a900473ffffffffffffffffffffffffffffffffffffffff1673ffffffffffffffffffffffffffffffffffffffff161415610a5357600191505b80806001019150506109d6565b5080610aa1576040517f08c379a0000000000000000000000000000000000000000000000000000000008152600401610a989061247f565b60405180910390fd5b60016008811115610aae57fe5b600260003373ffffffffffffffffffffffffffffffffffffffff1673ffffffffffffffffffffffffffffffffffffffff16815260200190815260200160002060030160009054906101000a900460ff166008811115610b0957fe5b14610b49576040517f08c379a0000000000000000000000000000000000000000000000000000000008152600401610b409061249f565b60405180910390fd5b6005805480602002602001604051908101604052809291908181526020018280548015610bcb57602002820191906000526020600020905b8160009054906101000a900473ffffffffffffffffffffffffffffffffffffffff1673ffffffffffffffffffffffffffffffffffffffff1681526020019060010190808311610b81575b50505050509250505090565b33600080905060008090505b600580549050811015610c6d578273ffffffffffffffffffffffffffffffffffffffff1660058281548110610c1457fe5b9060005260206000200160009054906101000a900473ffffffffffffffffffffffffffffffffffffffff1673ffffffffffffffffffffffffffffffffffffffff161415610c6057600191505b8080600101915050610be3565b5080610cae576040517f08c379a0000000000000000000000000000000000000000000000000000000008152600401610ca59061247f565b60405180910390fd5b83600080905060008090505b600580549050811015610d44578273ffffffffffffffffffffffffffffffffffffffff1660058281548110610ceb57fe5b9060005260206000200160009054906101000a900473ffffffffffffffffffffffffffffffffffffffff1673ffffffffffffffffffffffffffffffffffffffff161415610d3757600191505b8080600101915050610cba565b5080610d85576040517f08c379a0000000000000000000000000000000000000000000000000000000008152600401610d7c9061247f565b60405180910390fd5b60016008811115610d9257fe5b600260003373ffffffffffffffffffffffffffffffffffffffff1673ffffffffffffffffffffffffffffffffffffffff16815260200190815260200160002060030160009054906101000a900460ff166008811115610ded57fe5b14610e2d576040517f08c379a0000000000000000000000000000000000000000000000000000000008152600401610e249061249f565b60405180910390fd5b8460008110158015610e4a5750600880811115610e4657fe5b8111155b610e5357600080fd5b6004600260008973ffffffffffffffffffffffffffffffffffffffff1673ffffffffffffffffffffffffffffffffffffffff168152602001908152602001600020600201908054610ea5929190611bd6565b50856008811115610eb257fe5b600260008973ffffffffffffffffffffffffffffffffffffffff1673ffffffffffffffffffffffffffffffffffffffff16815260200190815260200160002060030160006101000a81548160ff02191690836008811115610f0f57fe5b0217905550610f6d87600260003373ffffffffffffffffffffffffffffffffffffffff1673ffffffffffffffffffffffffffffffffffffffff16815260200190815260200160002060030160009054906101000a900460ff16611aea565b50505050505050565b33600080905060008090505b60058054905081101561100c578273ffffffffffffffffffffffffffffffffffffffff1660058281548110610fb357fe5b9060005260206000200160009054906101000a900473ffffffffffffffffffffffffffffffffffffffff1673ffffffffffffffffffffffffffffffffffffffff161415610fff57600191505b8080600101915050610f82565b508061104d576040517f08c379a00000000000000000000000000000000000000000000000000000000081526004016110449061247f565b60405180910390fd5b6001600881111561105a57fe5b600260003373ffffffffffffffffffffffffffffffffffffffff1673ffffffffffffffffffffffffffffffffffffffff16815260200190815260200160002060030160009054906101000a900460ff1660088111156110b557fe5b146110f5576040517f08c379a00000000000000000000000000000000000000000000000000000000081526004016110ec9061249f565b60405180910390fd5b82600260008673ffffffffffffffffffffffffffffffffffffffff1673ffffffffffffffffffffffffffffffffffffffff168152602001908152602001600020600101819055507fad01cc3de7470825364bfa2d94686858aa5a0b1cdbf24fb1f547bb15c5fffc3c84844260405161116f939291906123cd565b60405180910390a150505050565b60008273ffffffffffffffffffffffffffffffffffffffff166108fc839081150290604051600060405180830381858888f193505050509050806111f7577f205dcd2369eaa9e255682632318905c508ade10fe38d8338d33926f424f2b8448383426040516111ee93929190612396565b60405180910390a15b505050565b3460008082825401925050819055507fd40f98e7a3d769515cbcfba6347b52f76cbd9bf29ce48ea4e64c7f81f31fc1bc33344260405161123e93929190612396565b60405180910390a1565b600033600080905060008090505b6005805490508110156112e0578273ffffffffffffffffffffffffffffffffffffffff166005828154811061128757fe5b9060005260206000200160009054906101000a900473ffffffffffffffffffffffffffffffffffffffff1673ffffffffffffffffffffffffffffffffffffffff1614156112d357600191505b8080600101915050611256565b5080611321576040517f08c379a00000000000000000000000000000000000000000000000000000000081526004016113189061247f565b60405180910390fd5b6002600881111561132e57fe5b600260003373ffffffffffffffffffffffffffffffffffffffff1673ffffffffffffffffffffffffffffffffffffffff16815260200190815260200160002060030160009054906101000a900460ff16600881111561138957fe5b146113c9576040517f08c379a00000000000000000000000000000000000000000000000000000000081526004016113c0906124bf565b60405180910390fd5b600080905060008090505b60058054905081101561146c5760026000600583815481106113f257fe5b9060005260206000200160009054906101000a900473ffffffffffffffffffffffffffffffffffffffff1673ffffffffffffffffffffffffffffffffffffffff1673ffffffffffffffffffffffffffffffffffffffff168152602001908152602001600020600101548201915080806001019150506113d4565b5080935050505090565b33600080905060008090505b60058054905081101561150c578273ffffffffffffffffffffffffffffffffffffffff16600582815481106114b357fe5b9060005260206000200160009054906101000a900473ffffffffffffffffffffffffffffffffffffffff1673ffffffffffffffffffffffffffffffffffffffff1614156114ff57600191505b8080600101915050611482565b508061154d576040517f08c379a00000000000000000000000000000000000000000000000000000000081526004016115449061247f565b60405180910390fd5b82600080905060008090505b6005805490508110156115e3578273ffffffffffffffffffffffffffffffffffffffff166005828154811061158a57fe5b9060005260206000200160009054906101000a900473ffffffffffffffffffffffffffffffffffffffff1673ffffffffffffffffffffffffffffffffffffffff1614156115d657600191505b8080600101915050611559565b5080611624576040517f08c379a000000000000000000000000000000000000000000000000000000000815260040161161b9061247f565b60405180910390fd5b6003600260003373ffffffffffffffffffffffffffffffffffffffff1673ffffffffffffffffffffffffffffffffffffffff16815260200190815260200160002060030160009054906101000a900460ff16600881111561168157fe5b11156116c2576040517f08c379a00000000000000000000000000000000000000000000000000000000081526004016116b9906124ff565b60405180910390fd5b61171b85600260003373ffffffffffffffffffffffffffffffffffffffff1673ffffffffffffffffffffffffffffffffffffffff16815260200190815260200160002060030160009054906101000a900460ff16611aea565b5050505050565b33600080905060008090505b6005805490508110156117b8578273ffffffffffffffffffffffffffffffffffffffff166005828154811061175f57fe5b9060005260206000200160009054906101000a900473ffffffffffffffffffffffffffffffffffffffff1673ffffffffffffffffffffffffffffffffffffffff1614156117ab57600191505b808060010191505061172e565b50806117f9576040517f08c379a00000000000000000000000000000000000000000000000000000000081526004016117f09061247f565b60405180910390fd5b6001600881111561180657fe5b600260003373ffffffffffffffffffffffffffffffffffffffff1673ffffffffffffffffffffffffffffffffffffffff16815260200190815260200160002060030160009054906101000a900460ff16600881111561186157fe5b146118a1576040517f08c379a00000000000000000000000000000000000000000000000000000000081526004016118989061249f565b60405180910390fd5b82600081101580156118be57506008808111156118ba57fe5b8111155b6118c757600080fd5b6040518060800160405280878152602001868152602001600480548060200260200160405190810160405280929190818152602001828054801561194f57602002820191906000526020600020906000905b82829054906101000a900460ff161515815260200190600101906020826000010492830192600103820291508084116119195790505b5050505050815260200185600881111561196557fe5b600881111561197057fe5b815250600260008973ffffffffffffffffffffffffffffffffffffffff1673ffffffffffffffffffffffffffffffffffffffff16815260200190815260200160002060008201518160000190805190602001906119ce929190611c36565b506020820151816001015560408201518160020190805190602001906119f5929190611cb6565b5060608201518160030160006101000a81548160ff02191690836008811115611a1a57fe5b021790555090505060058790806001815401808255809150509060018203906000526020600020016000909192909190916101000a81548173ffffffffffffffffffffffffffffffffffffffff021916908373ffffffffffffffffffffffffffffffffffffffff16021790555050611ae187600260003373ffffffffffffffffffffffffffffffffffffffff1673ffffffffffffffffffffffffffffffffffffffff16815260200190815260200160002060030160009054906101000a900460ff16611aea565b50505050505050565b806008811115611af657fe5b60008110158015611b125750600880811115611b0e57fe5b8111155b611b1b57600080fd5b6001600260008573ffffffffffffffffffffffffffffffffffffffff1673ffffffffffffffffffffffffffffffffffffffff168152602001908152602001600020600201836008811115611b6b57fe5b81548110611b7557fe5b90600052602060002090602091828204019190066101000a81548160ff021916908315150217905550505050565b604051806080016040528060608152602001600081526020016060815260200160006008811115611bd057fe5b81525090565b82805482825590600052602060002090601f01602090048101928215611c2557600052602060002091601f016020900482015b82811115611c24578254825591600101919060010190611c09565b5b509050611c329190611d5c565b5090565b828054600181600116156101000203166002900490600052602060002090601f016020900481019282601f10611c7757805160ff1916838001178555611ca5565b82800160010185558215611ca5579182015b82811115611ca4578251825591602001919060010190611c89565b5b509050611cb29190611d8c565b5090565b82805482825590600052602060002090601f01602090048101928215611d4b5791602002820160005b83821115611d1c57835183826101000a81548160ff0219169083151502179055509260200192600101602081600001049283019260010302611cdf565b8015611d495782816101000a81549060ff0219169055600101602081600001049283019260010302611d1c565b505b509050611d589190611d5c565b5090565b611d8991905b80821115611d8557600081816101000a81549060ff021916905550600101611d62565b5090565b90565b611dae91905b80821115611daa576000816000905550600101611d92565b5090565b90565b600081359050611dc0816127a0565b92915050565b600081359050611dd5816127b7565b92915050565b600082601f830112611dec57600080fd5b8135611dff611dfa82612587565b61255a565b91508082526020830160208301858383011115611e1b57600080fd5b611e26838284612740565b50505092915050565b600081359050611e3e816127ce565b92915050565b600060208284031215611e5657600080fd5b6000611e6484828501611db1565b91505092915050565b60008060408385031215611e8057600080fd5b6000611e8e85828601611dc6565b9250506020611e9f85828601611e2f565b9150509250929050565b60008060008060808587031215611ebf57600080fd5b6000611ecd87828801611db1565b945050602085013567ffffffffffffffff811115611eea57600080fd5b611ef687828801611ddb565b9350506040611f0787828801611e2f565b9250506060611f1887828801611e2f565b91505092959194509250565b60008060408385031215611f3757600080fd5b6000611f4585828601611db1565b9250506020611f5685828601611e2f565b9150509250929050565b6000611f6c8383611fb3565b60208301905092915050565b6000611f848383612102565b60208301905092915050565b6000611f9c838361230e565b905092915050565b611fad816126f8565b82525050565b611fbc8161268b565b82525050565b611fcb8161268b565b82525050565b6000611fdc826125e3565b611fe68185612636565b9350611ff1836125b3565b8060005b838110156120225781516120098882611f60565b97506120148361260f565b925050600181019050611ff5565b5085935050505092915050565b600061203a826125ee565b6120448185612647565b935061204f836125c3565b8060005b838110156120805781516120678882611f78565b97506120728361261c565b925050600181019050612053565b5085935050505092915050565b6000612098826125f9565b6120a28185612658565b9350836020820285016120b4856125d3565b8060005b858110156120f057848403895281516120d18582611f90565b94506120dc83612629565b925060208a019950506001810190506120b8565b50829750879550505050505092915050565b61210b816126af565b82525050565b61211a816126af565b82525050565b6121298161270a565b82525050565b600061213a82612604565b6121448185612669565b935061215481856020860161274f565b61215d81612782565b840191505092915050565b600061217560178361267a565b91507f456d706c6f79656520646f65736e2774206578697374210000000000000000006000830152602082019050919050565b60006121b560138361267a565b91507f596f7520617265206e6f742074686520485221000000000000000000000000006000830152602082019050919050565b60006121f560158361267a565b91507f596f7520617265206e6f7420617574686f72697a6500000000000000000000006000830152602082019050919050565b600061223560348361267a565b91507f596f7520646f206e6f7420686176652073756666696369656e742062616c616e60008301527f636520666f7220616c6c20656d706c6f796565730000000000000000000000006020830152604082019050919050565b600061229b601a8361267a565b91507f596f7520617265206e6f742061646d696e6973747261746f72730000000000006000830152602082019050919050565b60006122db600e8361267a565b91507f4e6f2072652d656e7472616e63790000000000000000000000000000000000006000830152602082019050919050565b6000608083016000830151848203600086015261232b828261212f565b91505060208301516123406020860182612378565b5060408301518482036040860152612358828261202f565b915050606083015161236d6060860182612120565b508091505092915050565b612381816126ee565b82525050565b612390816126ee565b82525050565b60006060820190506123ab6000830186611fa4565b6123b86020830185612387565b6123c56040830184612387565b949350505050565b60006060820190506123e26000830186611fc2565b6123ef6020830185612387565b6123fc6040830184612387565b949350505050565b6000602082019050818103600083015261241e8184611fd1565b905092915050565b60006020820190508181036000830152612440818461208d565b905092915050565b600060608201905061245d6000830186612111565b61246a6020830185612387565b6124776040830184612387565b949350505050565b6000602082019050818103600083015261249881612168565b9050919050565b600060208201905081810360008301526124b8816121a8565b9050919050565b600060208201905081810360008301526124d8816121e8565b9050919050565b600060208201905081810360008301526124f881612228565b9050919050565b600060208201905081810360008301526125188161228e565b9050919050565b60006020820190508181036000830152612538816122ce565b9050919050565b60006020820190506125546000830184612387565b92915050565b6000604051905081810181811067ffffffffffffffff8211171561257d57600080fd5b8060405250919050565b600067ffffffffffffffff82111561259e57600080fd5b601f19601f8301169050602081019050919050565b6000819050602082019050919050565b6000819050602082019050919050565b6000819050602082019050919050565b600081519050919050565b600081519050919050565b600081519050919050565b600081519050919050565b6000602082019050919050565b6000602082019050919050565b6000602082019050919050565b600082825260208201905092915050565b600082825260208201905092915050565b600082825260208201905092915050565b600082825260208201905092915050565b600082825260208201905092915050565b6000612696826126ce565b9050919050565b60006126a8826126ce565b9050919050565b60008115159050919050565b60008190506126c982612793565b919050565b600073ffffffffffffffffffffffffffffffffffffffff82169050919050565b6000819050919050565b60006127038261271c565b9050919050565b6000612715826126bb565b9050919050565b60006127278261272e565b9050919050565b6000612739826126ce565b9050919050565b82818337600083830152505050565b60005b8381101561276d578082015181840152602081019050612752565b8381111561277c576000848401525b50505050565b6000601f19601f8301169050919050565b6009811061279d57fe5b50565b6127a98161268b565b81146127b457600080fd5b50565b6127c08161269d565b81146127cb57600080fd5b50565b6127d7816126ee565b81146127e257600080fd5b5056fea365627a7a723158202cfed3bf06236444dd148380112758412b83a1afabbb6ba0681e60a064e381c06c6578706572696d656e74616cf564736f6c63430005100040",
  "source": "pragma experimental ABIEncoderV2;\npragma solidity ^0.5.16;\n\ncontract EmployeeContract {\n    uint balance;\n    bool internal locked;\n\n    enum Position{CEO,HR,FINC,MKT,CEO_SCRT,HR_SCRT,FINC_SCRT,MKT_SCRT,COSTUMER_SUPPORT}\n    struct Employee {\n        string name;\n        uint salary;\n        bool[] approvals;\n        Position position;\n    }\n    mapping (address => Employee) contracts;\n    bool[] default_approvals = [true,true,true,true];\n    bool[] default_approvals_restart = [false,false,false,false];\n    address[] employees;\n    event Depositbalance(address _senderAddress, uint _balance, uint _timestamp);\n    event ChangeOfSalaryEvent(address _employee, uint _newSalary, uint _now);\n    event SentbalanceFail(address _receiverAddress, uint _balance, uint _timestamp);\n    event DeliverPayroll(bool _complete, uint totalAmount, uint _timestamp);\n    event Withdrawbalance(address _receiverAddress, uint _balance, uint _timestamp);\n\n\n    constructor(address[] memory _addresses, string[] memory _names, uint[] memory _salaries) public {\n        contracts[_addresses[uint256(Position.CEO)]] = Employee(_names[uint256(Position.CEO)],_salaries[uint256(Position.CEO)],default_approvals,Position.CEO);\n        contracts[_addresses[uint256(Position.HR)]] = Employee(_names[uint256(Position.HR)],_salaries[uint256(Position.HR)],default_approvals,Position.HR);\n        contracts[_addresses[uint256(Position.FINC)]] = Employee(_names[uint256(Position.FINC)],_salaries[uint256(Position.FINC)],default_approvals,Position.FINC);\n        contracts[_addresses[uint256(Position.MKT)]] = Employee(_names[uint256(Position.MKT)],_salaries[uint256(Position.MKT)],default_approvals,Position.MKT);\n        for(uint i=0;i<_addresses.length;i++){\n            employees.push(_addresses[i]);\n        }\n    }\n\n    modifier noReentrant() {\n        require(!locked, \"No re-entrancy\");\n        locked = true;\n        _;\n        locked = false;\n    }\n\n    modifier isEmployee(address _employee) {\n        bool exists = false;\n        for(uint i=0;i<employees.length;i++){\n            if(employees[i] == _employee){\n                exists = true;\n            }\n        }\n        require(exists,\"Employee doesn't exist!\");\n        _;\n    }\n    modifier onlyHR() {\n        require(contracts[msg.sender].position == Position.HR, \"You are not the HR!\");\n        _;\n    }\n\n    modifier onlyFN() {\n        require(contracts[msg.sender].position == Position.FINC, \"You are not authorize\");\n        _;\n    }\n\n    modifier isAdmin() {\n        require(uint256(contracts[msg.sender].position) <= 3, \"You are not administrators\");\n        _;\n    }\n\n    modifier validPosition(uint256 _positionIndex) {\n        require(_positionIndex >= 0 && _positionIndex <= uint256(Position.COSTUMER_SUPPORT));\n        _;\n    }\n\n    modifier sufficientBalance() {\n        require(getGrandTotal() <= balance, \"You do not have sufficient balance for all employees\");\n        _;\n    }\n\n\n    function modifySalary(address _employee, uint _newSalary) public isEmployee(msg.sender) onlyHR {\n        contracts[_employee].salary = _newSalary;\n        emit ChangeOfSalaryEvent(_employee, _newSalary, block.timestamp);\n    }\n    function getEmployees() public isEmployee(msg.sender) onlyHR view returns (address[] memory) {\n        return employees;\n    }\n    function _approveEmployeePosition(address _employee, Position _approverPosition) private validPosition(uint256(_approverPosition)) {\n        contracts[_employee].approvals[uint256(_approverPosition)] = true;\n    }\n    function changeEmployeePosition(address _employee, uint _newPosition) public isEmployee(msg.sender) isEmployee(_employee) onlyHR validPosition(uint256(_newPosition)) {\n        contracts[_employee].approvals = default_approvals_restart;\n        contracts[_employee].position = Position(_newPosition);\n        _approveEmployeePosition(_employee, contracts[msg.sender].position);\n    }\n    function approveEmployeePosition(address _employee) public isEmployee(msg.sender) isEmployee(_employee) isAdmin {\n        _approveEmployeePosition(_employee, contracts[msg.sender].position);\n    }\n    function addNewEmployee(address _employee, string memory _name, uint _salary, uint _position) public isEmployee(msg.sender) onlyHR validPosition(uint256(_position)) {\n        contracts[_employee] = Employee(_name,_salary,default_approvals_restart,Position(_position));\n        employees.push(_employee);\n        _approveEmployeePosition(_employee, contracts[msg.sender].position);\n    }\n    function getEmployeesInfo() public isEmployee(msg.sender) onlyHR view returns (Employee[] memory) {\n        Employee[] memory _employees = new Employee[](employees.length);\n        for(uint i=0;i<employees.length;i++){\n            _employees[i] = contracts[employees[i]];\n        }\n        return _employees;\n    } \n\n    function deposit() public payable {\n        balance += msg.value;\n        emit Depositbalance(msg.sender, msg.value, block.timestamp);\n    }\n\n \n    function getGrandTotal() public isEmployee(msg.sender) onlyFN view returns (uint) {\n        uint totalSalary = 0;\n        for (uint i = 0; i < employees.length; i++) {\n            totalSalary += contracts[employees[i]].salary;\n        }\n        return totalSalary;\n    }\n\n   function sendSalary(address payable _to, uint _salary) public payable {\n        bool sentStatus = _to.send(_salary);\n        if (!sentStatus) {\n            emit SentbalanceFail(_to, _salary, block.timestamp);\n        }\n    }\n\n\n    function sendPayroll() public payable isEmployee(msg.sender) onlyFN sufficientBalance noReentrant {\n       for (uint i = 0; i < employees.length; i++) {\n           address payable acc = address(uint160(employees[i]));\n           sendSalary(acc, contracts[employees[i]].salary);\n           balance -= contracts[employees[i]].salary;\n       }\n       emit DeliverPayroll(true, getGrandTotal(), block.timestamp);\n    }\n\n\n\n}\n",
  "sourcePath": "/home/blubu/learning/it480/employeecontract/contracts/EmployeeContract.sol",
  "compiler": {
    "name": "solc",
    "version": "0.5.16+commit.9c3226ce.Emscripten.clang"
  },
  "schemaVersion": "3.4.1",
  "updatedAt": "2021-07-13T15:27:41.528Z",
  "networkType": "ethereum",
  "devdoc": {
    "methods": {}
  },
  "userdoc": {
    "methods": {}
  }
}